{
  "contractName": "ZkDex",
  "abi": [
    {
      "constant": true,
      "inputs": [],
      "name": "liquidateNoteVerifier",
      "outputs": [
        {
          "name": "",
          "type": "address"
        }
      ],
      "payable": false,
      "stateMutability": "view",
      "type": "function"
    },
    {
      "constant": true,
      "inputs": [],
      "name": "spendNoteVerifier",
      "outputs": [
        {
          "name": "",
          "type": "address"
        }
      ],
      "payable": false,
      "stateMutability": "view",
      "type": "function"
    },
    {
      "constant": true,
      "inputs": [],
      "name": "takeOrderVerifier",
      "outputs": [
        {
          "name": "",
          "type": "address"
        }
      ],
      "payable": false,
      "stateMutability": "view",
      "type": "function"
    },
    {
      "constant": true,
      "inputs": [
        {
          "name": "",
          "type": "bytes32"
        }
      ],
      "name": "encryptedNotes",
      "outputs": [
        {
          "name": "",
          "type": "bytes"
        }
      ],
      "payable": false,
      "stateMutability": "view",
      "type": "function"
    },
    {
      "constant": true,
      "inputs": [],
      "name": "ETH_TOKEY_TYPE",
      "outputs": [
        {
          "name": "",
          "type": "uint256"
        }
      ],
      "payable": false,
      "stateMutability": "view",
      "type": "function"
    },
    {
      "constant": false,
      "inputs": [
        {
          "name": "to",
          "type": "address"
        },
        {
          "name": "a",
          "type": "uint256[2]"
        },
        {
          "name": "a_p",
          "type": "uint256[2]"
        },
        {
          "name": "b",
          "type": "uint256[2][2]"
        },
        {
          "name": "b_p",
          "type": "uint256[2]"
        },
        {
          "name": "c",
          "type": "uint256[2]"
        },
        {
          "name": "c_p",
          "type": "uint256[2]"
        },
        {
          "name": "h",
          "type": "uint256[2]"
        },
        {
          "name": "k",
          "type": "uint256[2]"
        },
        {
          "name": "input",
          "type": "uint256[5]"
        }
      ],
      "name": "liquidate",
      "outputs": [],
      "payable": false,
      "stateMutability": "nonpayable",
      "type": "function"
    },
    {
      "constant": false,
      "inputs": [
        {
          "name": "a",
          "type": "uint256[2]"
        },
        {
          "name": "a_p",
          "type": "uint256[2]"
        },
        {
          "name": "b",
          "type": "uint256[2][2]"
        },
        {
          "name": "b_p",
          "type": "uint256[2]"
        },
        {
          "name": "c",
          "type": "uint256[2]"
        },
        {
          "name": "c_p",
          "type": "uint256[2]"
        },
        {
          "name": "h",
          "type": "uint256[2]"
        },
        {
          "name": "k",
          "type": "uint256[2]"
        },
        {
          "name": "input",
          "type": "uint256[9]"
        },
        {
          "name": "encryptedNote1",
          "type": "bytes"
        },
        {
          "name": "encryptedNote2",
          "type": "bytes"
        }
      ],
      "name": "spend",
      "outputs": [],
      "payable": false,
      "stateMutability": "nonpayable",
      "type": "function"
    },
    {
      "constant": true,
      "inputs": [],
      "name": "development",
      "outputs": [
        {
          "name": "",
          "type": "bool"
        }
      ],
      "payable": false,
      "stateMutability": "view",
      "type": "function"
    },
    {
      "constant": true,
      "inputs": [],
      "name": "settleOrderVerifier",
      "outputs": [
        {
          "name": "",
          "type": "address"
        }
      ],
      "payable": false,
      "stateMutability": "view",
      "type": "function"
    },
    {
      "constant": true,
      "inputs": [
        {
          "name": "",
          "type": "bytes32"
        }
      ],
      "name": "notes",
      "outputs": [
        {
          "name": "",
          "type": "uint8"
        }
      ],
      "payable": false,
      "stateMutability": "view",
      "type": "function"
    },
    {
      "constant": false,
      "inputs": [
        {
          "name": "a",
          "type": "uint256[2]"
        },
        {
          "name": "a_p",
          "type": "uint256[2]"
        },
        {
          "name": "b",
          "type": "uint256[2][2]"
        },
        {
          "name": "b_p",
          "type": "uint256[2]"
        },
        {
          "name": "c",
          "type": "uint256[2]"
        },
        {
          "name": "c_p",
          "type": "uint256[2]"
        },
        {
          "name": "h",
          "type": "uint256[2]"
        },
        {
          "name": "k",
          "type": "uint256[2]"
        },
        {
          "name": "input",
          "type": "uint256[5]"
        },
        {
          "name": "encryptedNote",
          "type": "bytes"
        }
      ],
      "name": "mint",
      "outputs": [],
      "payable": true,
      "stateMutability": "payable",
      "type": "function"
    },
    {
      "constant": true,
      "inputs": [],
      "name": "DAI_TOKEY_TYPE",
      "outputs": [
        {
          "name": "",
          "type": "uint256"
        }
      ],
      "payable": false,
      "stateMutability": "view",
      "type": "function"
    },
    {
      "constant": true,
      "inputs": [
        {
          "name": "",
          "type": "uint256"
        }
      ],
      "name": "orders",
      "outputs": [
        {
          "name": "makerViewingKey",
          "type": "bytes32"
        },
        {
          "name": "makerNote",
          "type": "bytes32"
        },
        {
          "name": "sourceToken",
          "type": "uint256"
        },
        {
          "name": "targetToken",
          "type": "uint256"
        },
        {
          "name": "price",
          "type": "uint256"
        },
        {
          "name": "takerNoteToMaker",
          "type": "bytes32"
        },
        {
          "name": "parentNote",
          "type": "bytes32"
        },
        {
          "name": "state",
          "type": "uint8"
        }
      ],
      "payable": false,
      "stateMutability": "view",
      "type": "function"
    },
    {
      "constant": true,
      "inputs": [],
      "name": "EMPTY_NOTE_HASH",
      "outputs": [
        {
          "name": "",
          "type": "bytes32"
        }
      ],
      "payable": false,
      "stateMutability": "view",
      "type": "function"
    },
    {
      "constant": true,
      "inputs": [],
      "name": "dai",
      "outputs": [
        {
          "name": "",
          "type": "address"
        }
      ],
      "payable": false,
      "stateMutability": "view",
      "type": "function"
    },
    {
      "constant": true,
      "inputs": [],
      "name": "makeOrderVerifier",
      "outputs": [
        {
          "name": "",
          "type": "address"
        }
      ],
      "payable": false,
      "stateMutability": "view",
      "type": "function"
    },
    {
      "constant": true,
      "inputs": [],
      "name": "mintNoteVerifier",
      "outputs": [
        {
          "name": "",
          "type": "address"
        }
      ],
      "payable": false,
      "stateMutability": "view",
      "type": "function"
    },
    {
      "inputs": [
        {
          "name": "_development",
          "type": "bool"
        },
        {
          "name": "_dai",
          "type": "address"
        },
        {
          "name": "_mintNoteVerifier",
          "type": "address"
        },
        {
          "name": "_spendNoteVerifier",
          "type": "address"
        },
        {
          "name": "_makeOrderVerifier",
          "type": "address"
        },
        {
          "name": "_takeOrderVerifier",
          "type": "address"
        },
        {
          "name": "_settleOrderVerifier",
          "type": "address"
        }
      ],
      "payable": false,
      "stateMutability": "nonpayable",
      "type": "constructor"
    },
    {
      "anonymous": false,
      "inputs": [
        {
          "indexed": false,
          "name": "orderId",
          "type": "uint256"
        },
        {
          "indexed": false,
          "name": "sourceToken",
          "type": "uint256"
        },
        {
          "indexed": false,
          "name": "targetToken",
          "type": "uint256"
        }
      ],
      "name": "OrderCreated",
      "type": "event"
    },
    {
      "anonymous": false,
      "inputs": [
        {
          "indexed": false,
          "name": "orderId",
          "type": "uint256"
        },
        {
          "indexed": false,
          "name": "takerNoteToMaker",
          "type": "bytes32"
        },
        {
          "indexed": false,
          "name": "parentNote",
          "type": "bytes32"
        }
      ],
      "name": "OrderTaken",
      "type": "event"
    },
    {
      "anonymous": false,
      "inputs": [
        {
          "indexed": false,
          "name": "orderId",
          "type": "uint256"
        },
        {
          "indexed": false,
          "name": "rewardNote",
          "type": "bytes32"
        },
        {
          "indexed": false,
          "name": "paymentNote",
          "type": "bytes32"
        },
        {
          "indexed": false,
          "name": "changeNote",
          "type": "bytes32"
        }
      ],
      "name": "OrderSettled",
      "type": "event"
    },
    {
      "anonymous": false,
      "inputs": [
        {
          "indexed": false,
          "name": "note",
          "type": "bytes32"
        },
        {
          "indexed": false,
          "name": "state",
          "type": "uint8"
        }
      ],
      "name": "NoteStateChange",
      "type": "event"
    },
    {
      "constant": false,
      "inputs": [
        {
          "name": "makerViewingKey",
          "type": "bytes32"
        },
        {
          "name": "targetToken",
          "type": "uint256"
        },
        {
          "name": "price",
          "type": "uint256"
        },
        {
          "name": "a",
          "type": "uint256[2]"
        },
        {
          "name": "a_p",
          "type": "uint256[2]"
        },
        {
          "name": "b",
          "type": "uint256[2][2]"
        },
        {
          "name": "b_p",
          "type": "uint256[2]"
        },
        {
          "name": "c",
          "type": "uint256[2]"
        },
        {
          "name": "c_p",
          "type": "uint256[2]"
        },
        {
          "name": "h",
          "type": "uint256[2]"
        },
        {
          "name": "k",
          "type": "uint256[2]"
        },
        {
          "name": "input",
          "type": "uint256[4]"
        }
      ],
      "name": "makeOrder",
      "outputs": [],
      "payable": false,
      "stateMutability": "nonpayable",
      "type": "function"
    },
    {
      "constant": false,
      "inputs": [
        {
          "name": "orderId",
          "type": "uint256"
        },
        {
          "name": "a",
          "type": "uint256[2]"
        },
        {
          "name": "a_p",
          "type": "uint256[2]"
        },
        {
          "name": "b",
          "type": "uint256[2][2]"
        },
        {
          "name": "b_p",
          "type": "uint256[2]"
        },
        {
          "name": "c",
          "type": "uint256[2]"
        },
        {
          "name": "c_p",
          "type": "uint256[2]"
        },
        {
          "name": "h",
          "type": "uint256[2]"
        },
        {
          "name": "k",
          "type": "uint256[2]"
        },
        {
          "name": "input",
          "type": "uint256[9]"
        },
        {
          "name": "encryptedStakingNote",
          "type": "bytes"
        }
      ],
      "name": "takeOrder",
      "outputs": [],
      "payable": false,
      "stateMutability": "nonpayable",
      "type": "function"
    },
    {
      "constant": false,
      "inputs": [
        {
          "name": "orderId",
          "type": "uint256"
        },
        {
          "name": "a",
          "type": "uint256[2]"
        },
        {
          "name": "a_p",
          "type": "uint256[2]"
        },
        {
          "name": "b",
          "type": "uint256[2][2]"
        },
        {
          "name": "b_p",
          "type": "uint256[2]"
        },
        {
          "name": "c",
          "type": "uint256[2]"
        },
        {
          "name": "c_p",
          "type": "uint256[2]"
        },
        {
          "name": "h",
          "type": "uint256[2]"
        },
        {
          "name": "k",
          "type": "uint256[2]"
        },
        {
          "name": "input",
          "type": "uint256[21]"
        },
        {
          "name": "encDatas",
          "type": "bytes"
        }
      ],
      "name": "settleOrder",
      "outputs": [],
      "payable": false,
      "stateMutability": "nonpayable",
      "type": "function"
    }
  ],
  "bytecode": "0x608060405234801561001057600080fd5b5060405160e0806135c8833981018060405260e081101561003057600080fd5b508051602082015160408301516060840151608085015160a086015160c0909601516000805460ff191696151596909617610100600160a81b0319166101006001600160a01b0396871602178655600380546001600160a01b03199081169587169586179091556004805482169487169490941790935560058054841690941790935560068054831691851691909117905560078054821695841695909517909455600880549094169116179091556134d99081906100ef90396000f3fe60806040526004361061011f5760003560e01c806385de26b7116100a0578063db0fad1011610064578063db0fad10146106dd578063e4ef3cd814610747578063f4b9fa751461075c578063f55fdd6114610771578063fdd3ddce146107865761011f565b806385de26b7146104a25780639111ca80146104f0578063a6fb7ec314610592578063a85c38ef146105a7578063b2e46efc146106265761011f565b80634f35b67e116100e75780634f35b67e146102d757806352ce2a81146102fe5780637a83295c146103655780637b929c271461046457806383c114e91461048d5761011f565b80630325925a14610124578063036ac8b714610155578063048e86081461016a57806314107a941461017f57806343498b281461021e575b600080fd5b34801561013057600080fd5b5061013961079b565b604080516001600160a01b039092168252519081900360200190f35b34801561016157600080fd5b506101396107aa565b34801561017657600080fd5b506101396107b9565b34801561018b57600080fd5b506101a9600480360360208110156101a257600080fd5b50356107c8565b6040805160208082528351818301528351919283929083019185019080838360005b838110156101e35781810151838201526020016101cb565b50505050905090810190601f1680156102105780820380516001836020036101000a031916815260200191505b509250505060405180910390f35b34801561022a57600080fd5b506102d5600480360361052081101561024257600080fd5b8135916020810191606082019160a08101916101208201916101608101916101a08201916101e08101916102208201916102608101918101906105208101610500820135600160201b81111561029757600080fd5b8201836020820111156102a957600080fd5b803590602001918460018302840111600160201b831117156102ca57600080fd5b509092509050610862565b005b3480156102e357600080fd5b506102ec611160565b60408051918252519081900360200190f35b34801561030a57600080fd5b506102d5600480360361030081101561032257600080fd5b506001600160a01b03813516906020810190606081019060a08101906101208101906101608101906101a08101906101e081019061022081019061026001611165565b34801561037157600080fd5b506102d560048036036103a081101561038957600080fd5b604082019060808301906101008401906101408501906101808601906101c08701906102008801906102408901908901896103808101610360820135600160201b8111156103d657600080fd5b8201836020820111156103e857600080fd5b803590602001918460018302840111600160201b8311171561040957600080fd5b919390929091602081019035600160201b81111561042657600080fd5b82018360208201111561043857600080fd5b803590602001918460018302840111600160201b8311171561045957600080fd5b509092509050611425565b34801561047057600080fd5b5061047961164b565b604080519115158252519081900360200190f35b34801561049957600080fd5b50610139611654565b3480156104ae57600080fd5b506104cc600480360360208110156104c557600080fd5b5035611663565b604051808260038111156104dc57fe5b60ff16815260200191505060405180910390f35b6102d5600480360361030081101561050757600080fd5b604082019060808301906101008401906101408501906101808601906101c087019061020088019061024089019089018961030081016102e0820135600160201b81111561055457600080fd5b82018360208201111561056657600080fd5b803590602001918460018302840111600160201b8311171561058757600080fd5b509092509050611678565b34801561059e57600080fd5b506102ec6119c2565b3480156105b357600080fd5b506105d1600480360360208110156105ca57600080fd5b50356119c7565b6040518089815260200188815260200187815260200186815260200185815260200184815260200183815260200182600281111561060b57fe5b60ff1681526020019850505050505050505060405180910390f35b34801561063257600080fd5b506102d560048036036103a081101561064a57600080fd5b8135916020810191606082019160a08101916101208201916101608101916101a08201916101e08101916102208201916102608101918101906103a08101610380820135600160201b81111561069f57600080fd5b8201836020820111156106b157600080fd5b803590602001918460018302840111600160201b831117156106d257600080fd5b509092509050611a1d565b3480156106e957600080fd5b506102d5600480360361032081101561070157600080fd5b50803590602081013590604081013590606081019060a081019060e08101906101608101906101a08101906101e08101906102208101906102608101906102a001611d27565b34801561075357600080fd5b506102ec611eb2565b34801561076857600080fd5b50610139611ed6565b34801561077d57600080fd5b50610139611eea565b34801561079257600080fd5b50610139611ef9565b6005546001600160a01b031681565b6004546001600160a01b031681565b6007546001600160a01b031681565b60016020818152600092835260409283902080548451600294821615610100026000190190911693909304601f810183900483028401830190945283835291929083018282801561085a5780601f1061082f5761010080835404028352916020019161085a565b820191906000526020600020905b81548152906001019060200180831161083d57829003601f168201915b505050505081565b600060098d8154811061087157fe5b906000526020600020906008020190506108a48460006015811061089157fe5b60200201358560015b6020020135611f08565b8160010154146108fe5760408051600160e51b62461bcd02815260206004820152601a60248201527f5a6b4465783a206d616b6572206e6f7465206d69736d61746368000000000000604482015290519081900360640190fd5b600281015460408501351461095d5760408051600160e51b62461bcd02815260206004820152601c60248201527f5a6b4465783a20736f7572636520746f6b656e206d69736d6174636800000000604482015290519081900360640190fd5b61096d606085013585600461089a565b8160050154146109b157604051600160e51b62461bcd0281526004018080602001828103825260238152602001806132fc6023913960400191505060405180910390fd5b600381015460a085013514610a105760408051600160e51b62461bcd02815260206004820152601c60248201527f5a6b4465783a2074617267657420746f6b656e206d69736d6174636800000000604482015290519081900360640190fd5b600281015461010085013514610a5a57604051600160e51b62461bcd0281526004018080602001828103825260218152602001806133dc6021913960400191505060405180910390fd5b610a6b61012085013585600a61089a565b816006015414610aaf57604051600160e51b62461bcd0281526004018080602001828103825260248152602001806133966024913960400191505060405180910390fd5b60038101546101a085013514610af957604051600160e51b62461bcd02815260040180806020018281038252602281526020018061334f6022913960400191505060405180910390fd5b610b0a6101c085013585600f61089a565b816001015414610b4e57604051600160e51b62461bcd0281526004018080602001828103825260258152602001806132b56025913960400191505060405180910390fd5b600481015461026085013514610bae5760408051600160e51b62461bcd02815260206004820152601b60248201527f5a6b4465783a206f72646572207072696365206d69736d617463680000000000604482015290519081900360640190fd5b6001600782015460ff166002811115610bc357fe5b14610c185760408051600160e51b62461bcd02815260206004820152601e60248201527f5a6b4465783a206f726465722063616e6e6f7420626520736574746c65640000604482015290519081900360640190fd5b600060026000610c328760065b602002013588600761089a565b815260208101919091526040016000205460ff166003811115610c5157fe5b14610c9057604051600160e51b62461bcd0281526004018080602001828103825260228152602001806133fd6022913960400191505060405180910390fd5b600060026000610caa87600b5b602002013588600c61089a565b815260208101919091526040016000205460ff166003811115610cc957fe5b14610d0857604051600160e51b62461bcd0281526004018080602001828103825260238152602001806132926023913960400191505060405180910390fd5b600060026000610d228760105b602002013588601161089a565b815260208101919091526040016000205460ff166003811115610d4157fe5b14610d8057604051600160e51b62461bcd02815260040180806020018281038252602281526020018061341f6022913960400191505060405180910390fd5b600160026000610d91876006610c25565b81526020810191909152604001600020805460ff19166001836003811115610db557fe5b0217905550600160026000610dcb87600b610c9d565b81526020810191909152604001600020805460ff19166001836003811115610def57fe5b0217905550600160026000610e05876010610d15565b81526020810191909152604001600020805460ff19166001836003811115610e2957fe5b0217905550600181015460009081526002602090815260408083208054600360ff19918216811790925560068601548552828520805482168317905560058601548552938290208054909416179092558151601f8501829004820281018201909252838252606091610ebf91610eba91908790879081908401838280828437600092019190915250611fcb92505050565b611ff1565b9050610ede81600081518110610ed157fe5b60200260200101516120be565b60016000610ef260c089013589600761089a565b81526020019081526020016000209080519060200190610f13929190613057565b50610f2481600181518110610ed157fe5b60016000610f3c88600b5b602002013589600c61089a565b81526020019081526020016000209080519060200190610f5d929190613057565b50610f6e81600281518110610ed157fe5b60016000610f8361020089013589601161089a565b81526020019081526020016000209080519060200190610fa4929190613057565b506007828101805460ff1916600217905560008051602061346883398151915290610fd69060c088013590889061089a565b60408051918252600160208301528051918290030190a160008051602061346883398151915261100d61016087013587600c61089a565b60408051918252600160208301528051918290030190a160008051602061346883398151915261104461020087013587601161089a565b60408051918252600160208301528051918290030190a16001820154604080519182526003602083015280516000805160206134688339815191529281900390910190a16006820154604080519182526003602083015280516000805160206134688339815191529281900390910190a16005820154604080519182526003602083015280516000805160206134688339815191529281900390910190a17ff77fc9a9b26cf97289e29b12a3bfe04c3af5aeac46482df20787415f0d00b4238e61110f876006610c25565b61111a88600b610f2f565b61112b6102008a01358a601161089a565b604080519485526020850193909352838301919091526060830152519081900360800190a15050505050505050505050505050565b600081565b6040805180820182526112d7918c91908c9060029083908390808284376000920191909152505060408051808201825291508c90600290839083908082843760009201829052506040805180820190915292508d9150600290835b828210156111fe57604080518082018252908084028601906002908390839080828437600092019190915250505081526001909101906020016111c0565b505060408051808201825292508d915060029083908390808284376000920191909152505060408051808201825291508c9060029083908390808284376000920191909152505060408051808201825291508c9060029083908390808284376000920191909152505060408051808201825291508c9060029083908390808284376000920191909152505060408051808201825291508c906002908390839080828437600092019190915250506040805160a081810190925291508c906005908390839080828437600092019190915250612137915050565b606081013561131e57604080516001600160a01b038c169183013580156108fc02916000818181858888f19350505050158015611318573d6000803e3d6000fd5b50611419565b6060810135600114156114195760005461010090046001600160a01b031663a9059cbb8b83600260200201356040518363ffffffff1660e01b815260040180836001600160a01b03166001600160a01b0316815260200182815260200192505050602060405180830381600087803b15801561139957600080fd5b505af11580156113ad573d6000803e3d6000fd5b505050506040513d60208110156113c357600080fd5b50516114195760408051600160e51b62461bcd02815260206004820152601360248201527f646169207472616e73666572206661696c656400000000000000000000000000604482015290519081900360640190fd5b50505050505050505050565b60408051808201825261163c918f9060029083908390808284376000920191909152505060408051808201825291508f906002908390839080828437600081840152601f19601f8201169050808301925050505050508d600280602002604051908101604052809291906000905b828210156114d15760408051808201825290808402860190600290839083908082843760009201919091525050508152600190910190602001611493565b505050508d60028060200260405190810160405280929190826002602002808284376000920191909152505060408051808201825291508f9060029083908390808284376000920191909152505060408051808201825291508f9060029083908390808284376000920191909152505060408051808201825291508f9060029083908390808284376000920191909152505060408051808201825291508f906002908390839080828437600092019190915250506040805161012081810190925291508f906009908390839080828437600081840152601f19601f8201169050808301925050505050508d8d8080601f016020809104026020016040519081016040528093929190818152602001838380828437600081840152601f19601f820116905080830192505050505050508c8c8080601f0160208091040260200160405190810160405280939291908181526020018383808284376000920191909152506124a592505050565b50505050505050505050505050565b60005460ff1681565b6008546001600160a01b031681565b60026020526000908152604090205460ff1681565b60608301356116e157346040840135146116dc5760408051600160e51b62461bcd02815260206004820152601a60248201527f657468657220616d6f756e7420646f65736e2774206d61746368000000000000604482015290519081900360640190fd5b611812565b60608301356001141561181257341561172e57604051600160e51b62461bcd02815260040180806020018281038252602b815260200180613267602b913960400191505060405180910390fd5b6000805460408051600160e01b6323b872dd02815233600482015230602482015286820135604482015290516101009092046001600160a01b0316926323b872dd926064808401936020939083900390910190829087803b15801561179257600080fd5b505af11580156117a6573d6000803e3d6000fd5b505050506040513d60208110156117bc57600080fd5b50516118125760408051600160e51b62461bcd02815260206004820152601360248201527f646169207472616e73666572206661696c656400000000000000000000000000604482015290519081900360640190fd5b6040805180820182526119b5918d9060029083908390808284376000920191909152505060408051808201825291508d90600290839083908082843760009201829052506040805180820190915292508e9150600290835b828210156118a8576040805180820182529080840286019060029083908390808284376000920191909152505050815260019091019060200161186a565b505060408051808201825292508e915060029083908390808284376000920191909152505060408051808201825291508d9060029083908390808284376000920191909152505060408051808201825291508d9060029083908390808284376000920191909152505060408051808201825291508d9060029083908390808284376000920191909152505060408051808201825291508d906002908390839080828437600092019190915250506040805160a081810190925291508d90600590839083908082843760009201919091525050604080516020601f8f018190048102820181019092528d815291508d908d9081908401838280828437600092019190915250612a5f92505050565b5050505050505050505050565b600181565b600981815481106119d457fe5b6000918252602090912060089091020180546001820154600283015460038401546004850154600586015460068701546007909701549597509395929491939092909160ff1688565b600060098d81548110611a2c57fe5b6000918252602082206008909102019150600782015460ff166002811115611a5057fe5b14611a5a57600080fd5b6003810154604085013514611aa357604051600160e51b62461bcd0281526004018080602001828103825260268152602001806134886026913960400191505060405180910390fd5b600381015460a085013514611aec57604051600160e51b62461bcd0281526004018080602001828103825260278152602001806134416027913960400191505060405180910390fd5b611afc60c085013585600761089a565b816001015414611b4057604051600160e51b62461bcd02815260040180806020018281038252602c81526020018061323b602c913960400191505060405180910390fd5b6000611b4f853586600161089a565b90506000611b63606087013587600461089a565b9050600160008381526002602052604090205460ff166003811115611b8457fe5b14611bc357604051600160e51b62461bcd0281526004018080602001828103825260228152602001806132da6022913960400191505060405180910390fd5b60008181526002602052604081205460ff166003811115611be057fe5b14611c1f57604051600160e51b62461bcd0281526004018080602001828103825260258152602001806133716025913960400191505060405180910390fd5b6000828152600260208181526040808420805460ff1990811685179091558585528185208054909116909317909255600190529020611c5f9086866130d5565b50600683018290556005830181905560078301805460ff1916600117905560408051838152600260208201528151600080516020613468833981519152929181900390910190a160408051828152600260208201528151600080516020613468833981519152929181900390910190a17f9aad78ca61002ed912b129aeaca45a2668484e4f4820eb523caa895538c9d0198f828460405180848152602001838152602001828152602001935050505060405180910390a1505050505050505050505050505050565b6000611d36823583600161089a565b905060408201358c1415611d7e57604051600160e51b62461bcd02815260040180806020018281038252603081526020018061331f6030913960400191505060405180910390fd5b600160008281526002602052604090205460ff166003811115611d9d57fe5b14611ddc57604051600160e51b62461bcd0281526004018080602001828103825260228152602001806133ba6022913960400191505060405180910390fd5b60098054600091611df09060018301613143565b9050600060098281548110611e0157fe5b600091825260209091206008909102018f815560018101849055905083600260200201356002820155600381018e9055600481018d90556007810180546000919060ff191660018302179055506000838152600260208190526040909120805460ff19166001830217905550604051838152600080516020613468833981519152908490600290602081018260ff1681526020019250505060405180910390a1505050505050505050505050505050565b7fbecedd494a23f6178d5b0fbd7aa6698b218367c9810c013e41649ad9d375a63a81565b60005461010090046001600160a01b031681565b6006546001600160a01b031681565b6003546001600160a01b031681565b604080516020808252818301909252600091608085811b929085901b916060919060208201818038833901905050905060005b6010811015611fb557838160108110611f5057fe5b1a60f81b828281518110611f6057fe5b60200101906001600160f81b031916908160001a905350828160108110611f8357fe5b1a60f81b828260100181518110611f9657fe5b60200101906001600160f81b031916908160001a905350600101611f3b565b50611fc1816000612dd2565b9695505050505050565b611fd361316f565b5060408051808201909152815181526020828101908201525b919050565b6060611ffc82612e1e565b61200557600080fd5b600061201083612e58565b90508060405190808252806020026020018201604052801561204c57816020015b61203961316f565b8152602001906001900390816120315790505b509150600061205e8460200151612eb4565b60208501510190506000805b838110156120b55761207b83612f1d565b915060405180604001604052808381526020018481525085828151811061209e57fe5b60209081029190910101529181019160010161206a565b50505050919050565b80516060906120cc57600080fd5b60006120db8360200151612eb4565b83516040805191839003808352601f19601f8201168301602001909152919250606090828015612112576020820181803883390190505b509050600081602001905061212e848760200151018285612fad565b50949350505050565b60005460ff16806123785750600560009054906101000a90046001600160a01b03166001600160a01b03166350c007c68a8a8a8a8a8a8a8a8a6040518a63ffffffff1660e01b8152600401808a600260200280838360005b838110156121a757818101518382015260200161218f565b5050505090500189600260200280838360005b838110156121d25781810151838201526020016121ba565b505050509050018860026000925b818410156122205760208402830151604080838360005b8381101561220f5781810151838201526020016121f7565b5050505090500192600101926121e0565b9250505087600260200280838360005b83811015612248578181015183820152602001612230565b5050505090500186600260200280838360005b8381101561227357818101518382015260200161225b565b5050505090500185600260200280838360005b8381101561229e578181015183820152602001612286565b5050505090500184600260200280838360005b838110156122c95781810151838201526020016122b1565b5050505090500183600260200280838360005b838110156122f45781810151838201526020016122dc565b5050505090500182600560200280838360005b8381101561231f578181015183820152602001612307565b505050509050019950505050505050505050602060405180830381600087803b15801561234b57600080fd5b505af115801561235f573d6000803e3d6000fd5b505050506040513d602081101561237557600080fd5b50515b6123cc5760408051600160e51b62461bcd02815260206004820152601860248201527f6661696c656420746f2076657269667920636972637569740000000000000000604482015290519081900360640190fd5b80516000906123e3908360015b6020020151611f08565b9050600160008281526002602052604090205460ff16600381111561240457fe5b1461244357604051600160e51b62461bcd0281526004018080602001828103825260278152602001806132146027913960400191505060405180910390fd5b600081815260026020526040902080546003919060ff1916600183021790555060405181815260008051602061346883398151915290829060039060208101825b60ff1681526020019250505060405180910390a15050505050505050505050565b60005460ff16806126e65750600460009054906101000a90046001600160a01b03166001600160a01b031663150268288c8c8c8c8c8c8c8c8c6040518a63ffffffff1660e01b8152600401808a600260200280838360005b838110156125155781810151838201526020016124fd565b5050505090500189600260200280838360005b83811015612540578181015183820152602001612528565b505050509050018860026000925b8184101561258e5760208402830151604080838360005b8381101561257d578181015183820152602001612565565b50505050905001926001019261254e565b9250505087600260200280838360005b838110156125b657818101518382015260200161259e565b5050505090500186600260200280838360005b838110156125e15781810151838201526020016125c9565b5050505090500185600260200280838360005b8381101561260c5781810151838201526020016125f4565b5050505090500184600260200280838360005b8381101561263757818101518382015260200161261f565b5050505090500183600260200280838360005b8381101561266257818101518382015260200161264a565b5050505090500182600960200280838360005b8381101561268d578181015183820152602001612675565b505050509050019950505050505050505050602060405180830381600087803b1580156126b957600080fd5b505af11580156126cd573d6000803e3d6000fd5b505050506040513d60208110156126e357600080fd5b50515b61273a5760408051600160e51b62461bcd02815260206004820152601860248201527f4661696c656420746f2076657269667920636972637569740000000000000000604482015290519081900360640190fd5b612742613189565b61274b84612ff8565b805160009081526002602052604090205490915060019060ff16600381111561277057fe5b146127af57604051600160e51b62461bcd0281526004018080602001828103825260278152602001806132146027913960400191505060405180910390fd5b60208082015160009081526002909152604081205460ff1660038111156127d257fe5b146128275760408051600160e51b62461bcd02815260206004820152601e60248201527f6f7574707574206e6f74653120697320616c7265616479206d696e7465640000604482015290519081900360640190fd5b604080820151600090815260026020529081205460ff16600381111561284957fe5b1461289e5760408051600160e51b62461bcd02815260206004820152601e60248201527f6f7574707574206e6f74653220697320616c7265616479206d696e7465640000604482015290519081900360640190fd5b60608101517fbecedd494a23f6178d5b0fbd7aa6698b218367c9810c013e41649ad9d375a63a14806128f05750606081015160009081526002602052604081205460ff1660038111156128ed57fe5b14155b6129445760408051600160e51b62461bcd02815260206004820152601a60248201527f6f726967696e616c20697320616c7265616479206d696e746564000000000000604482015290519081900360640190fd5b80516000908152600260209081526040808320805460ff199081166003179091558285018051855282852080548316600190811790915583870151865283862080549093168117909255518452825290912084516129a492860190613057565b5060408082015160009081526001602090815291902083516129c892850190613057565b508051604080519182526003602083015280516000805160206134688339815191529281900390910190a1602081810151604080519182526001928201929092528151600080516020613468833981519152929181900390910190a16040818101518151908152600160208201528151600080516020613468833981519152929181900390910190a1505050505050505050505050565b60005460ff1680612ca05750600360009054906101000a90046001600160a01b03166001600160a01b03166350c007c68b8b8b8b8b8b8b8b8b6040518a63ffffffff1660e01b8152600401808a600260200280838360005b83811015612acf578181015183820152602001612ab7565b5050505090500189600260200280838360005b83811015612afa578181015183820152602001612ae2565b505050509050018860026000925b81841015612b485760208402830151604080838360005b83811015612b37578181015183820152602001612b1f565b505050509050019260010192612b08565b9250505087600260200280838360005b83811015612b70578181015183820152602001612b58565b5050505090500186600260200280838360005b83811015612b9b578181015183820152602001612b83565b5050505090500185600260200280838360005b83811015612bc6578181015183820152602001612bae565b5050505090500184600260200280838360005b83811015612bf1578181015183820152602001612bd9565b5050505090500183600260200280838360005b83811015612c1c578181015183820152602001612c04565b5050505090500182600560200280838360005b83811015612c47578181015183820152602001612c2f565b505050509050019950505050505050505050602060405180830381600087803b158015612c7357600080fd5b505af1158015612c87573d6000803e3d6000fd5b505050506040513d6020811015612c9d57600080fd5b50515b612cf45760408051600160e51b62461bcd02815260206004820152601860248201527f4661696c656420746f2076657269667920636972637569740000000000000000604482015290519081900360640190fd5b8151600090612d05908460016123d9565b90506000808281526002602052604090205460ff166003811115612d2557fe5b14612d7a5760408051600160e51b62461bcd02815260206004820152601760248201527f4e6f74652077617320616c7265616479206d696e746564000000000000000000604482015290519081900360640190fd5b6000818152600260209081526040808320805460ff1916600190811790915582529091208351612dac92850190613057565b506040518181526000805160206134688339815191529082906001906020810182612484565b6000805b6020811015612e1757806008028482850181518110612df157fe5b01602001516001600160f81b031960f891821c90911b16901c9190911790600101612dd6565b5092915050565b8051600090612e2f57506000611fec565b6020820151805160001a9060c0821015612e4e57600092505050611fec565b5060019392505050565b8051600090612e6957506000611fec565b60008090506000612e7d8460200151612eb4565b602085015185519181019250015b80821015612eab57612e9c82612f1d565b60019093019290910190612e8b565b50909392505050565b8051600090811a6080811015612ece576000915050611fec565b60b8811080612ee9575060c08110801590612ee9575060f881105b15612ef8576001915050611fec565b60c0811015612f0c5760b519019050611fec565b60f519019050611fec565b50919050565b8051600090811a6080811015612f37576001915050611fec565b60b8811015612f4b57607e19019050611fec565b60c0811015612f785760b78103600184019350806020036101000a84510460018201810193505050612f17565b60f8811015612f8c5760be19019050611fec565b60019290920151602083900360f7016101000a900490910160f51901919050565b80612fb757612ff3565b5b60208110612fd7578251825260209283019290910190601f1901612fb8565b8251825160208390036101000a60001901801990921691161782525b505050565b613000613189565b815161300e908360016123d9565b81526040820151613021908360036123d9565b60208201526080820151613037908360056123d9565b604082015260c082015161304d908360076123d9565b6060820152919050565b828054600181600116156101000203166002900490600052602060002090601f016020900481019282601f1061309857805160ff19168380011785556130c5565b828001600101855582156130c5579182015b828111156130c55782518255916020019190600101906130aa565b506130d19291506131a7565b5090565b828054600181600116156101000203166002900490600052602060002090601f016020900481019282601f106131165782800160ff198235161785556130c5565b828001600101855582156130c5579182015b828111156130c5578235825591602001919060010190613128565b815481835581811115612ff357600802816008028360005260206000209182019101612ff391906131c4565b604051806040016040528060008152602001600081525090565b60405180608001604052806004906020820280388339509192915050565b6131c191905b808211156130d157600081556001016131ad565b90565b6131c191905b808211156130d15760008082556001820181905560028201819055600382018190556004820181905560058201819055600682015560078101805460ff191690556008016131ca56fe4e6f74652069732065697468657220696e76616c6964206f7220616c7265616479207370656e745a6b4465783a206f776e6572206f662074616b6572206e6f746520746f206d616b6572206d69736d617463686d73672e76616c75652073686f756c64206265203020666f72206372656174696e6720646169206e6f74655a6b4465783a207061796d656e74206e6f7465206d75737420626520696e76616c69645a6b4465783a206f776e6572206f66207061796d656e74206e6f7465206d69736d617463685a6b4465783a2074616b6572206e6f7465206973206e6f7420617661696c61626c655a6b4465783a2074616b6572206e6f746520746f206d616b6572206d69736d617463685a6b4465783a2063616e6e6f74206d616b6520616e206f7264657220776974682073616d6520746f6b656e20706169725a6b4465783a207061796d656e7420746f6b656e2074797065206d69736d617463685a6b4465783a2074616b65722073656e642076616c6964206e6f746520746f206d616b65725a6b4465783a206f776e6572206f6620726577617264206e6f7465206d69736d617463685a6b4465783a206d616b6572206e6f7465206973206e6f7420617661696c61626c655a6b4465783a2072657761726420746f6b656e2074797065206d69736d617463685a6b4465783a20726577617264206e6f7465206d75737420626520696e76616c69645a6b4465783a206368616e6765206e6f7465206d75737420626520696e76616c69645a6b4465783a207374616b696e67206e6f746520746f6b656e2074797065206d69736d6174636891d2faa002479f8dc4f20862402db3dba2ebe927031674997d38e5b70d9877e75a6b4465783a20706172656e74206e6f746520746f6b656e2074797065206d69736d61746368a165627a7a72305820ed179ce26dc509a7047cbf5d49a0db14c562b5904b33e2d15e5020334645f7ad0029",
  "source": "pragma solidity ^0.5.0;\n\nimport {mintNBurnNote_Verifier as MintNoteVerifier} from \"./verifiers/mintNBurnNote_Verifier.sol\";\nimport {transferNote_Verifier as SpendNoteVerifier} from \"./verifiers/transferNote_Verifier.sol\";\nimport {makeOrder_Verifier as MakeOrderVerifier} from \"./verifiers/makeOrder_Verifier.sol\";\nimport {takeOrder_Verifier as TakeOrderVerifier} from \"./verifiers/takeOrder_Verifier.sol\";\nimport {settleOrder_Verifier as SettleOrderVerifier} from \"./verifiers/settleOrder_Verifier.sol\";\n\nimport \"./ZkDai.sol\";\nimport \"./RLPReader.sol\";\n\ncontract ZkDex is ZkDai {\n  using RLPReader for *;\n\n  MakeOrderVerifier public makeOrderVerifier;\n  TakeOrderVerifier public takeOrderVerifier;\n  SettleOrderVerifier public settleOrderVerifier;\n\n  enum OrderState {Created, Taken, Settled}\n\n  struct Order {\n    bytes32 makerViewingKey;\n    bytes32 makerNote;\n    uint256 sourceToken;\n    uint256 targetToken;\n    uint256 price;\n    bytes32 takerNoteToMaker;\n    bytes32 parentNote;\n\n    OrderState state;\n  }\n\n  Order[] public orders;\n\n  event OrderCreated(uint256 orderId, uint256 sourceToken, uint256 targetToken);\n  event OrderTaken(uint256 orderId, bytes32 takerNoteToMaker, bytes32 parentNote);\n  event OrderSettled(uint256 orderId, bytes32 rewardNote, bytes32 paymentNote, bytes32 changeNote);\n\n  constructor(\n    bool _development,\n    address _dai,\n    MintNoteVerifier _mintNoteVerifier,\n    SpendNoteVerifier _spendNoteVerifier,\n    MakeOrderVerifier _makeOrderVerifier,\n    TakeOrderVerifier _takeOrderVerifier,\n    SettleOrderVerifier _settleOrderVerifier\n  )\n    public\n    ZkDai(_development, _dai, _mintNoteVerifier, _spendNoteVerifier)\n  {\n    makeOrderVerifier = _makeOrderVerifier;\n    takeOrderVerifier = _takeOrderVerifier;\n    settleOrderVerifier = _settleOrderVerifier;\n  }\n\n  /**\n   * zk-SNARK public input\n   *  - [0, 1]  = maker note hash\n   *  - [2]     = maker note type\n   *  - [3]     = output\n   */\n  function makeOrder(\n    bytes32 makerViewingKey,\n    uint256 targetToken,\n    uint price,\n    uint256[2] calldata a,\n    uint256[2] calldata a_p,\n    uint256[2][2] calldata b,\n    uint256[2] calldata b_p,\n    uint256[2] calldata c,\n    uint256[2] calldata c_p,\n    uint256[2] calldata h,\n    uint256[2] calldata k,\n    uint256[4] calldata input\n  ) external {\n    // TODO: verify circuit:makeOrder\n\n    bytes32 makerNote = calcHash(input[0], input[1]);\n\n    require(input[2] != targetToken, \"ZkDex: cannot make an order with same token pair\");\n    require(notes[makerNote] == State.Valid, \"ZkDex: maker note is not available\");\n\n    uint orderId = orders.length++;\n    Order storage order = orders[orderId];\n\n    order.makerViewingKey = makerViewingKey;\n    order.makerNote = makerNote;\n    order.sourceToken = input[2];\n    order.targetToken = targetToken;\n    order.price = price;\n    order.state = OrderState.Created;\n\n    notes[makerNote] = State.Traiding;\n\n    emit NoteStateChange(makerNote, State.Traiding);\n\n    // NOTE: cannot compile below line due to stack too deep error..\n    // emit OrderCreated(orderId, input[2], targetToken);\n  }\n\n\n\n  /**\n   * zk-SNARK public input\n   *  - [0, 1]  = parent note hash\n   *  - [2]     = parent note type\n   *\n   *  - [3, 4]  = taker note to maker note hash (staking note)\n   *  - [5]     = taker note to maker type\n   *  - [6, 7]  = owner of taker note to maker (== maker note)\n   *\n   *  - [8]     = output\n   */\n   function takeOrder(\n    uint256 orderId,\n    uint256[2] calldata a,\n    uint256[2] calldata a_p,\n    uint256[2][2] calldata b,\n    uint256[2] calldata b_p,\n    uint256[2] calldata c,\n    uint256[2] calldata c_p,\n    uint256[2] calldata h,\n    uint256[2] calldata k,\n    uint256[9] calldata input,\n    bytes calldata encryptedStakingNote\n  ) external {\n    // TODO: verify circuit:takerOrder\n\n    Order storage order = orders[orderId];\n\n    require(order.state == OrderState.Created);\n\n    require(order.targetToken == input[2], \"ZkDex: parent note token type mismatch\");\n    require(order.targetToken == input[5], \"ZkDex: staking note token type mismatch\");\n    require(order.makerNote == calcHash(input[6], input[7]), \"ZkDex: owner of taker note to maker mismatch\");\n\n    bytes32 parentNote = calcHash(input[0], input[1]);\n    bytes32 takerNoteToMaker = calcHash(input[3], input[4]);\n\n    require(notes[parentNote] == State.Valid, \"ZkDex: taker note is not available\");\n    require(notes[takerNoteToMaker] == State.Invalid, \"ZkDex: taker send valid note to maker\");\n\n    notes[parentNote] = State.Traiding;\n    notes[takerNoteToMaker] = State.Traiding;\n\n    encryptedNotes[takerNoteToMaker] = encryptedStakingNote;\n\n    order.parentNote = parentNote;\n    order.takerNoteToMaker = takerNoteToMaker;\n    order.state = OrderState.Taken;\n\n    emit NoteStateChange(parentNote, State.Traiding);\n    emit NoteStateChange(takerNoteToMaker, State.Traiding);\n    emit OrderTaken(orderId, takerNoteToMaker, parentNote);\n  }\n\n  /**\n   * zk-SNARK public input\n   *  - [0, 1]  = maker note hash\n   *  - [2]     = maker note type\n   *\n   *  - [3, 4]  = taker note to maker note hash\n   *  - [5]     = taker note to maker type\n   *\n   *  - [6, 7]  = reward note hash\n   *  - [8]    = reward note type\n   *  - [9, 10]= owner of reward note (parent note (for taker))\n   *\n   *  - [11, 12]= payment note hash\n   *  - [13]    = payment note type\n   *  - [14, 15]= owner of payment note (maker note (for maker))\n   *\n   *  - [16, 17]= change note hash\n   *  - [18]    = change note type\n   *\n   *  - [19]    = price\n   *\n   *  - [20]    = output\n   */\n  function settleOrder(\n    uint256 orderId,\n    uint256[2] calldata a,\n    uint256[2] calldata a_p,\n    uint256[2][2] calldata b,\n    uint256[2] calldata b_p,\n    uint256[2] calldata c,\n    uint256[2] calldata c_p,\n    uint256[2] calldata h,\n    uint256[2] calldata k,\n    uint256[21] calldata input,\n\n    bytes calldata encDatas // [encryptedRewardNote, encryptedPaymentNote, encryptedChangeNote]\n  ) external {\n    // TODO: verify circuit:settleOrder\n\n    Order storage order = orders[orderId];\n\n    require(order.makerNote == calcHash(input[0], input[1]), \"ZkDex: maker note mismatch\");\n    require(order.sourceToken == input[2], \"ZkDex: source token mismatch\");\n    require(order.takerNoteToMaker == calcHash(input[3], input[4]), \"ZkDex: taker note to maker mismatch\");\n    require(order.targetToken == input[5], \"ZkDex: target token mismatch\");\n\n    require(order.sourceToken == input[8], \"ZkDex: reward token type mismatch\");\n    require(order.parentNote == calcHash(input[9], input[10]), \"ZkDex: owner of reward note mismatch\");\n    require(order.targetToken == input[13], \"ZkDex: payment token type mismatch\");\n    require(order.makerNote == calcHash(input[14], input[15]), \"ZkDex: owner of payment note mismatch\");\n\n    require(order.price == input[19], \"ZkDex: order price mismatch\");\n\n    require(order.state == OrderState.Taken, \"ZkDex: order cannot be settled\");\n\n\n    require(notes[calcHash(input[6], input[7])] == State.Invalid, \"ZkDex: reward note must be invalid\");\n    require(notes[calcHash(input[11], input[12])] == State.Invalid, \"ZkDex: payment note must be invalid\");\n    require(notes[calcHash(input[16], input[17])] == State.Invalid, \"ZkDex: change note must be invalid\");\n\n    notes[calcHash(input[6], input[7])] = State.Valid;\n    notes[calcHash(input[11], input[12])] = State.Valid;\n    notes[calcHash(input[16], input[17])] = State.Valid;\n\n    notes[order.makerNote] = State.Spent;\n    notes[order.parentNote] = State.Spent;\n    notes[order.takerNoteToMaker] = State.Spent;\n\n    RLPReader.RLPItem[] memory encList = encDatas.toRlpItem().toList();\n\n    encryptedNotes[calcHash(input[6], input[7])] = encList[0].toBytes();\n    encryptedNotes[calcHash(input[11], input[12])] = encList[1].toBytes();\n    encryptedNotes[calcHash(input[16], input[17])] = encList[2].toBytes();\n\n    order.state = OrderState.Settled;\n\n    emit NoteStateChange(calcHash(input[6], input[7]), State.Valid);\n    emit NoteStateChange(calcHash(input[11], input[12]), State.Valid);\n    emit NoteStateChange(calcHash(input[16], input[17]), State.Valid);\n\n    emit NoteStateChange(order.makerNote, State.Spent);\n    emit NoteStateChange(order.parentNote, State.Spent);\n    emit NoteStateChange(order.takerNoteToMaker, State.Spent);\n\n    emit OrderSettled(orderId, calcHash(input[6], input[7]), calcHash(input[11], input[12]), calcHash(input[16], input[17]));\n  }\n\n  function hashOrder(Order memory order) internal view returns (bytes32) {\n    return keccak256(abi.encode(\n      order.makerViewingKey,\n      order.makerNote,\n      order.sourceToken,\n      order.targetToken,\n      order.price\n    ));\n  }\n}\n\n",
  "sourcePath": "/Users/thomashin/Workspace/zk-dex/contracts/ZkDex.sol",
  "compiler": {
    "name": "solc",
    "version": "0.5.8+commit.23d335f2.Emscripten.clang"
  },
  "schemaVersion": "3.0.9",
  "updatedAt": "2019-07-20T17:41:45.430Z",
  "devdoc": {
    "methods": {
      "liquidate(address,uint256[2],uint256[2],uint256[2][2],uint256[2],uint256[2],uint256[2],uint256[2],uint256[2],uint256[5])": {
        "details": "Liquidate a note to transfer the equivalent amount of dai to the recipient",
        "params": {
          "input": "Public inputs of the zkSnark",
          "to": "Recipient of the dai tokens"
        }
      },
      "mint(uint256[2],uint256[2],uint256[2][2],uint256[2],uint256[2],uint256[2],uint256[2],uint256[2],uint256[5],bytes)": {
        "details": "Transfers specified number of dai tokens to itself and submits the zkSnark proof to mint a new note",
        "params": {
          "input": "Public inputs of the zkSnark"
        }
      },
      "spend(uint256[2],uint256[2],uint256[2][2],uint256[2],uint256[2],uint256[2],uint256[2],uint256[2],uint256[9],bytes,bytes)": {
        "details": "Submits the zkSnark proof to be able to spend a note and create two new notes",
        "params": {
          "input": "Public inputs of the zkSnark"
        }
      }
    }
  },
  "userdoc": {
    "methods": {
      "liquidate(address,uint256[2],uint256[2],uint256[2][2],uint256[2],uint256[2],uint256[2],uint256[2],uint256[2],uint256[5])": {
        "notice": "params: a, a_p, b, b_p, c, c_p, h, k zkSnark parameters"
      },
      "makeOrder(bytes32,uint256,uint256,uint256[2],uint256[2],uint256[2][2],uint256[2],uint256[2],uint256[2],uint256[2],uint256[2],uint256[4])": {
        "notice": "zk-SNARK public input - [0, 1]  = maker note hash - [2]     = maker note type - [3]     = output"
      },
      "mint(uint256[2],uint256[2],uint256[2][2],uint256[2],uint256[2],uint256[2],uint256[2],uint256[2],uint256[5],bytes)": {
        "notice": "params: a, a_p, b, b_p, c, c_p, h, k zkSnark parameters"
      },
      "settleOrder(uint256,uint256[2],uint256[2],uint256[2][2],uint256[2],uint256[2],uint256[2],uint256[2],uint256[2],uint256[21],bytes)": {
        "notice": "zk-SNARK public input - [0, 1]  = maker note hash - [2]     = maker note type   *  - [3, 4]  = taker note to maker note hash - [5]     = taker note to maker type   *  - [6, 7]  = reward note hash - [8]    = reward note type - [9, 10]= owner of reward note (parent note (for taker))   *  - [11, 12]= payment note hash - [13]    = payment note type - [14, 15]= owner of payment note (maker note (for maker))   *  - [16, 17]= change note hash - [18]    = change note type   *  - [19]    = price   *  - [20]    = output"
      },
      "spend(uint256[2],uint256[2],uint256[2][2],uint256[2],uint256[2],uint256[2],uint256[2],uint256[2],uint256[9],bytes,bytes)": {
        "notice": "params: a, a_p, b, b_p, c, c_p, h, k zkSnark parameters"
      },
      "takeOrder(uint256,uint256[2],uint256[2],uint256[2][2],uint256[2],uint256[2],uint256[2],uint256[2],uint256[2],uint256[9],bytes)": {
        "notice": "zk-SNARK public input - [0, 1]  = parent note hash - [2]     = parent note type   *  - [3, 4]  = taker note to maker note hash (staking note) - [5]     = taker note to maker type - [6, 7]  = owner of taker note to maker (== maker note)   *  - [8]     = output"
      }
    }
  }
}